{
  "address": "0x9fE46736679d2D9a65F0992F2272dE9f3c7fa6e0",
  "abi": [
    {
      "inputs": [
        {
          "internalType": "uint256",
          "name": "supply",
          "type": "uint256"
        }
      ],
      "stateMutability": "nonpayable",
      "type": "constructor"
    },
    {
      "anonymous": false,
      "inputs": [
        {
          "indexed": true,
          "internalType": "address",
          "name": "owner",
          "type": "address"
        },
        {
          "indexed": true,
          "internalType": "address",
          "name": "spender",
          "type": "address"
        },
        {
          "indexed": false,
          "internalType": "uint256",
          "name": "value",
          "type": "uint256"
        }
      ],
      "name": "Approval",
      "type": "event"
    },
    {
      "anonymous": false,
      "inputs": [
        {
          "indexed": true,
          "internalType": "address",
          "name": "from",
          "type": "address"
        },
        {
          "indexed": true,
          "internalType": "address",
          "name": "to",
          "type": "address"
        },
        {
          "indexed": false,
          "internalType": "uint256",
          "name": "value",
          "type": "uint256"
        }
      ],
      "name": "Transfer",
      "type": "event"
    },
    {
      "inputs": [
        {
          "internalType": "address",
          "name": "owner",
          "type": "address"
        },
        {
          "internalType": "address",
          "name": "spender",
          "type": "address"
        }
      ],
      "name": "allowance",
      "outputs": [
        {
          "internalType": "uint256",
          "name": "",
          "type": "uint256"
        }
      ],
      "stateMutability": "view",
      "type": "function"
    },
    {
      "inputs": [
        {
          "internalType": "address",
          "name": "spender",
          "type": "address"
        },
        {
          "internalType": "uint256",
          "name": "amount",
          "type": "uint256"
        }
      ],
      "name": "approve",
      "outputs": [
        {
          "internalType": "bool",
          "name": "",
          "type": "bool"
        }
      ],
      "stateMutability": "nonpayable",
      "type": "function"
    },
    {
      "inputs": [
        {
          "internalType": "address",
          "name": "account",
          "type": "address"
        }
      ],
      "name": "balanceOf",
      "outputs": [
        {
          "internalType": "uint256",
          "name": "",
          "type": "uint256"
        }
      ],
      "stateMutability": "view",
      "type": "function"
    },
    {
      "inputs": [
        {
          "internalType": "address",
          "name": "_user",
          "type": "address"
        },
        {
          "internalType": "uint256",
          "name": "_amount",
          "type": "uint256"
        }
      ],
      "name": "burn",
      "outputs": [],
      "stateMutability": "nonpayable",
      "type": "function"
    },
    {
      "inputs": [],
      "name": "decimals",
      "outputs": [
        {
          "internalType": "uint8",
          "name": "",
          "type": "uint8"
        }
      ],
      "stateMutability": "view",
      "type": "function"
    },
    {
      "inputs": [
        {
          "internalType": "address",
          "name": "spender",
          "type": "address"
        },
        {
          "internalType": "uint256",
          "name": "subtractedValue",
          "type": "uint256"
        }
      ],
      "name": "decreaseAllowance",
      "outputs": [
        {
          "internalType": "bool",
          "name": "",
          "type": "bool"
        }
      ],
      "stateMutability": "nonpayable",
      "type": "function"
    },
    {
      "inputs": [
        {
          "internalType": "address",
          "name": "spender",
          "type": "address"
        },
        {
          "internalType": "uint256",
          "name": "addedValue",
          "type": "uint256"
        }
      ],
      "name": "increaseAllowance",
      "outputs": [
        {
          "internalType": "bool",
          "name": "",
          "type": "bool"
        }
      ],
      "stateMutability": "nonpayable",
      "type": "function"
    },
    {
      "inputs": [
        {
          "internalType": "address",
          "name": "_user",
          "type": "address"
        },
        {
          "internalType": "uint256",
          "name": "_amount",
          "type": "uint256"
        }
      ],
      "name": "mint",
      "outputs": [],
      "stateMutability": "nonpayable",
      "type": "function"
    },
    {
      "inputs": [],
      "name": "name",
      "outputs": [
        {
          "internalType": "string",
          "name": "",
          "type": "string"
        }
      ],
      "stateMutability": "view",
      "type": "function"
    },
    {
      "inputs": [],
      "name": "symbol",
      "outputs": [
        {
          "internalType": "string",
          "name": "",
          "type": "string"
        }
      ],
      "stateMutability": "view",
      "type": "function"
    },
    {
      "inputs": [],
      "name": "totalSupply",
      "outputs": [
        {
          "internalType": "uint256",
          "name": "",
          "type": "uint256"
        }
      ],
      "stateMutability": "view",
      "type": "function"
    },
    {
      "inputs": [
        {
          "internalType": "address",
          "name": "to",
          "type": "address"
        },
        {
          "internalType": "uint256",
          "name": "amount",
          "type": "uint256"
        }
      ],
      "name": "transfer",
      "outputs": [
        {
          "internalType": "bool",
          "name": "",
          "type": "bool"
        }
      ],
      "stateMutability": "nonpayable",
      "type": "function"
    },
    {
      "inputs": [
        {
          "internalType": "address",
          "name": "from",
          "type": "address"
        },
        {
          "internalType": "address",
          "name": "to",
          "type": "address"
        },
        {
          "internalType": "uint256",
          "name": "amount",
          "type": "uint256"
        }
      ],
      "name": "transferFrom",
      "outputs": [
        {
          "internalType": "bool",
          "name": "",
          "type": "bool"
        }
      ],
      "stateMutability": "nonpayable",
      "type": "function"
    },
    {
      "inputs": [
        {
          "internalType": "uint8",
          "name": "_decimals",
          "type": "uint8"
        }
      ],
      "name": "updateDecimals",
      "outputs": [],
      "stateMutability": "nonpayable",
      "type": "function"
    }
  ],
  "transactionHash": "0x59bb00c7ad92723c2151b1fca65573889dac74483150f019e897368ab8aaaa7c",
  "args": [
    1000
  ],
  "numDeployments": 1,
  "solcInputHash": "4cd45fafec0a2f1d1141a1c2c1ca0aa6",
  "bytecode": "0x60806040523480156200001157600080fd5b5060405162001e0438038062001e04833981810160405281019062000037919062000387565b6040518060400160405280600881526020017f4d6f636b205553540000000000000000000000000000000000000000000000008152506040518060400160405280600781526020017f6d6f636b5553540000000000000000000000000000000000000000000000000081525060128383838160039080519060200190620000c092919062000297565b508060049080519060200190620000d992919062000297565b50505081600560006101000a81548160ff021916908360ff1602179055506200010933826200011460201b60201c565b50505050506200055b565b600073ffffffffffffffffffffffffffffffffffffffff168273ffffffffffffffffffffffffffffffffffffffff16141562000187576040517f08c379a00000000000000000000000000000000000000000000000000000000081526004016200017e906200041a565b60405180910390fd5b6200019b600083836200028d60201b60201c565b8060026000828254620001af91906200046b565b92505081905550806000808473ffffffffffffffffffffffffffffffffffffffff1673ffffffffffffffffffffffffffffffffffffffff16815260200190815260200160002060008282546200020691906200046b565b925050819055508173ffffffffffffffffffffffffffffffffffffffff16600073ffffffffffffffffffffffffffffffffffffffff167fddf252ad1be2c89b69c2b068fc378daa952ba7f163c4a11628f55a4df523b3ef836040516200026d9190620004d9565b60405180910390a362000289600083836200029260201b60201c565b5050565b505050565b505050565b828054620002a59062000525565b90600052602060002090601f016020900481019282620002c9576000855562000315565b82601f10620002e457805160ff191683800117855562000315565b8280016001018555821562000315579182015b8281111562000314578251825591602001919060010190620002f7565b5b50905062000324919062000328565b5090565b5b808211156200034357600081600090555060010162000329565b5090565b600080fd5b6000819050919050565b62000361816200034c565b81146200036d57600080fd5b50565b600081519050620003818162000356565b92915050565b600060208284031215620003a0576200039f62000347565b5b6000620003b08482850162000370565b91505092915050565b600082825260208201905092915050565b7f45524332303a206d696e7420746f20746865207a65726f206164647265737300600082015250565b600062000402601f83620003b9565b91506200040f82620003ca565b602082019050919050565b600060208201905081810360008301526200043581620003f3565b9050919050565b7f4e487b7100000000000000000000000000000000000000000000000000000000600052601160045260246000fd5b600062000478826200034c565b915062000485836200034c565b9250827fffffffffffffffffffffffffffffffffffffffffffffffffffffffffffffffff03821115620004bd57620004bc6200043c565b5b828201905092915050565b620004d3816200034c565b82525050565b6000602082019050620004f06000830184620004c8565b92915050565b7f4e487b7100000000000000000000000000000000000000000000000000000000600052602260045260246000fd5b600060028204905060018216806200053e57607f821691505b60208210811415620005555762000554620004f6565b5b50919050565b611899806200056b6000396000f3fe608060405234801561001057600080fd5b50600436106100ea5760003560e01c806340c10f191161008c5780639dc29fac116100665780639dc29fac1461025f578063a457c2d71461027b578063a9059cbb146102ab578063dd62ed3e146102db576100ea565b806340c10f19146101f557806370a082311461021157806395d89b4114610241576100ea565b806318160ddd116100c857806318160ddd1461015957806323b872dd14610177578063313ce567146101a757806339509351146101c5576100ea565b806306fdde03146100ef578063095ea7b31461010d5780630ce83a611461013d575b600080fd5b6100f761030b565b6040516101049190610f36565b60405180910390f35b61012760048036038101906101229190610ff1565b61039d565b604051610134919061104c565b60405180910390f35b610157600480360381019061015291906110a0565b6103c0565b005b6101616103de565b60405161016e91906110dc565b60405180910390f35b610191600480360381019061018c91906110f7565b6103e8565b60405161019e919061104c565b60405180910390f35b6101af610417565b6040516101bc9190611159565b60405180910390f35b6101df60048036038101906101da9190610ff1565b61042e565b6040516101ec919061104c565b60405180910390f35b61020f600480360381019061020a9190610ff1565b610465565b005b61022b60048036038101906102269190611174565b610473565b60405161023891906110dc565b60405180910390f35b6102496104bb565b6040516102569190610f36565b60405180910390f35b61027960048036038101906102749190610ff1565b61054d565b005b61029560048036038101906102909190610ff1565b61055b565b6040516102a2919061104c565b60405180910390f35b6102c560048036038101906102c09190610ff1565b6105d2565b6040516102d2919061104c565b60405180910390f35b6102f560048036038101906102f091906111a1565b6105f5565b60405161030291906110dc565b60405180910390f35b60606003805461031a90611210565b80601f016020809104026020016040519081016040528092919081815260200182805461034690611210565b80156103935780601f1061036857610100808354040283529160200191610393565b820191906000526020600020905b81548152906001019060200180831161037657829003601f168201915b5050505050905090565b6000806103a861067c565b90506103b5818585610684565b600191505092915050565b80600560006101000a81548160ff021916908360ff16021790555050565b6000600254905090565b6000806103f361067c565b905061040085828561084f565b61040b8585856108db565b60019150509392505050565b6000600560009054906101000a900460ff16905090565b60008061043961067c565b905061045a81858561044b85896105f5565b6104559190611271565b610684565b600191505092915050565b61046f8282610b5c565b5050565b60008060008373ffffffffffffffffffffffffffffffffffffffff1673ffffffffffffffffffffffffffffffffffffffff168152602001908152602001600020549050919050565b6060600480546104ca90611210565b80601f01602080910402602001604051908101604052809291908181526020018280546104f690611210565b80156105435780601f1061051857610100808354040283529160200191610543565b820191906000526020600020905b81548152906001019060200180831161052657829003601f168201915b5050505050905090565b6105578282610cbc565b5050565b60008061056661067c565b9050600061057482866105f5565b9050838110156105b9576040517f08c379a00000000000000000000000000000000000000000000000000000000081526004016105b090611339565b60405180910390fd5b6105c68286868403610684565b60019250505092915050565b6000806105dd61067c565b90506105ea8185856108db565b600191505092915050565b6000600160008473ffffffffffffffffffffffffffffffffffffffff1673ffffffffffffffffffffffffffffffffffffffff16815260200190815260200160002060008373ffffffffffffffffffffffffffffffffffffffff1673ffffffffffffffffffffffffffffffffffffffff16815260200190815260200160002054905092915050565b600033905090565b600073ffffffffffffffffffffffffffffffffffffffff168373ffffffffffffffffffffffffffffffffffffffff1614156106f4576040517f08c379a00000000000000000000000000000000000000000000000000000000081526004016106eb906113cb565b60405180910390fd5b600073ffffffffffffffffffffffffffffffffffffffff168273ffffffffffffffffffffffffffffffffffffffff161415610764576040517f08c379a000000000000000000000000000000000000000000000000000000000815260040161075b9061145d565b60405180910390fd5b80600160008573ffffffffffffffffffffffffffffffffffffffff1673ffffffffffffffffffffffffffffffffffffffff16815260200190815260200160002060008473ffffffffffffffffffffffffffffffffffffffff1673ffffffffffffffffffffffffffffffffffffffff168152602001908152602001600020819055508173ffffffffffffffffffffffffffffffffffffffff168373ffffffffffffffffffffffffffffffffffffffff167f8c5be1e5ebec7d5bd14f71427d1e84f3dd0314c0f7b2291e5b200ac8c7c3b9258360405161084291906110dc565b60405180910390a3505050565b600061085b84846105f5565b90507fffffffffffffffffffffffffffffffffffffffffffffffffffffffffffffffff81146108d557818110156108c7576040517f08c379a00000000000000000000000000000000000000000000000000000000081526004016108be906114c9565b60405180910390fd5b6108d48484848403610684565b5b50505050565b600073ffffffffffffffffffffffffffffffffffffffff168373ffffffffffffffffffffffffffffffffffffffff16141561094b576040517f08c379a00000000000000000000000000000000000000000000000000000000081526004016109429061155b565b60405180910390fd5b600073ffffffffffffffffffffffffffffffffffffffff168273ffffffffffffffffffffffffffffffffffffffff1614156109bb576040517f08c379a00000000000000000000000000000000000000000000000000000000081526004016109b2906115ed565b60405180910390fd5b6109c6838383610e93565b60008060008573ffffffffffffffffffffffffffffffffffffffff1673ffffffffffffffffffffffffffffffffffffffff16815260200190815260200160002054905081811015610a4c576040517f08c379a0000000000000000000000000000000000000000000000000000000008152600401610a439061167f565b60405180910390fd5b8181036000808673ffffffffffffffffffffffffffffffffffffffff1673ffffffffffffffffffffffffffffffffffffffff16815260200190815260200160002081905550816000808573ffffffffffffffffffffffffffffffffffffffff1673ffffffffffffffffffffffffffffffffffffffff1681526020019081526020016000206000828254610adf9190611271565b925050819055508273ffffffffffffffffffffffffffffffffffffffff168473ffffffffffffffffffffffffffffffffffffffff167fddf252ad1be2c89b69c2b068fc378daa952ba7f163c4a11628f55a4df523b3ef84604051610b4391906110dc565b60405180910390a3610b56848484610e98565b50505050565b600073ffffffffffffffffffffffffffffffffffffffff168273ffffffffffffffffffffffffffffffffffffffff161415610bcc576040517f08c379a0000000000000000000000000000000000000000000000000000000008152600401610bc3906116eb565b60405180910390fd5b610bd860008383610e93565b8060026000828254610bea9190611271565b92505081905550806000808473ffffffffffffffffffffffffffffffffffffffff1673ffffffffffffffffffffffffffffffffffffffff1681526020019081526020016000206000828254610c3f9190611271565b925050819055508173ffffffffffffffffffffffffffffffffffffffff16600073ffffffffffffffffffffffffffffffffffffffff167fddf252ad1be2c89b69c2b068fc378daa952ba7f163c4a11628f55a4df523b3ef83604051610ca491906110dc565b60405180910390a3610cb860008383610e98565b5050565b600073ffffffffffffffffffffffffffffffffffffffff168273ffffffffffffffffffffffffffffffffffffffff161415610d2c576040517f08c379a0000000000000000000000000000000000000000000000000000000008152600401610d239061177d565b60405180910390fd5b610d3882600083610e93565b60008060008473ffffffffffffffffffffffffffffffffffffffff1673ffffffffffffffffffffffffffffffffffffffff16815260200190815260200160002054905081811015610dbe576040517f08c379a0000000000000000000000000000000000000000000000000000000008152600401610db59061180f565b60405180910390fd5b8181036000808573ffffffffffffffffffffffffffffffffffffffff1673ffffffffffffffffffffffffffffffffffffffff168152602001908152602001600020819055508160026000828254610e15919061182f565b92505081905550600073ffffffffffffffffffffffffffffffffffffffff168373ffffffffffffffffffffffffffffffffffffffff167fddf252ad1be2c89b69c2b068fc378daa952ba7f163c4a11628f55a4df523b3ef84604051610e7a91906110dc565b60405180910390a3610e8e83600084610e98565b505050565b505050565b505050565b600081519050919050565b600082825260208201905092915050565b60005b83811015610ed7578082015181840152602081019050610ebc565b83811115610ee6576000848401525b50505050565b6000601f19601f8301169050919050565b6000610f0882610e9d565b610f128185610ea8565b9350610f22818560208601610eb9565b610f2b81610eec565b840191505092915050565b60006020820190508181036000830152610f508184610efd565b905092915050565b600080fd5b600073ffffffffffffffffffffffffffffffffffffffff82169050919050565b6000610f8882610f5d565b9050919050565b610f9881610f7d565b8114610fa357600080fd5b50565b600081359050610fb581610f8f565b92915050565b6000819050919050565b610fce81610fbb565b8114610fd957600080fd5b50565b600081359050610feb81610fc5565b92915050565b6000806040838503121561100857611007610f58565b5b600061101685828601610fa6565b925050602061102785828601610fdc565b9150509250929050565b60008115159050919050565b61104681611031565b82525050565b6000602082019050611061600083018461103d565b92915050565b600060ff82169050919050565b61107d81611067565b811461108857600080fd5b50565b60008135905061109a81611074565b92915050565b6000602082840312156110b6576110b5610f58565b5b60006110c48482850161108b565b91505092915050565b6110d681610fbb565b82525050565b60006020820190506110f160008301846110cd565b92915050565b6000806000606084860312156111105761110f610f58565b5b600061111e86828701610fa6565b935050602061112f86828701610fa6565b925050604061114086828701610fdc565b9150509250925092565b61115381611067565b82525050565b600060208201905061116e600083018461114a565b92915050565b60006020828403121561118a57611189610f58565b5b600061119884828501610fa6565b91505092915050565b600080604083850312156111b8576111b7610f58565b5b60006111c685828601610fa6565b92505060206111d785828601610fa6565b9150509250929050565b7f4e487b7100000000000000000000000000000000000000000000000000000000600052602260045260246000fd5b6000600282049050600182168061122857607f821691505b6020821081141561123c5761123b6111e1565b5b50919050565b7f4e487b7100000000000000000000000000000000000000000000000000000000600052601160045260246000fd5b600061127c82610fbb565b915061128783610fbb565b9250827fffffffffffffffffffffffffffffffffffffffffffffffffffffffffffffffff038211156112bc576112bb611242565b5b828201905092915050565b7f45524332303a2064656372656173656420616c6c6f77616e63652062656c6f7760008201527f207a65726f000000000000000000000000000000000000000000000000000000602082015250565b6000611323602583610ea8565b915061132e826112c7565b604082019050919050565b6000602082019050818103600083015261135281611316565b9050919050565b7f45524332303a20617070726f76652066726f6d20746865207a65726f2061646460008201527f7265737300000000000000000000000000000000000000000000000000000000602082015250565b60006113b5602483610ea8565b91506113c082611359565b604082019050919050565b600060208201905081810360008301526113e4816113a8565b9050919050565b7f45524332303a20617070726f766520746f20746865207a65726f20616464726560008201527f7373000000000000000000000000000000000000000000000000000000000000602082015250565b6000611447602283610ea8565b9150611452826113eb565b604082019050919050565b600060208201905081810360008301526114768161143a565b9050919050565b7f45524332303a20696e73756666696369656e7420616c6c6f77616e6365000000600082015250565b60006114b3601d83610ea8565b91506114be8261147d565b602082019050919050565b600060208201905081810360008301526114e2816114a6565b9050919050565b7f45524332303a207472616e736665722066726f6d20746865207a65726f20616460008201527f6472657373000000000000000000000000000000000000000000000000000000602082015250565b6000611545602583610ea8565b9150611550826114e9565b604082019050919050565b6000602082019050818103600083015261157481611538565b9050919050565b7f45524332303a207472616e7366657220746f20746865207a65726f206164647260008201527f6573730000000000000000000000000000000000000000000000000000000000602082015250565b60006115d7602383610ea8565b91506115e28261157b565b604082019050919050565b60006020820190508181036000830152611606816115ca565b9050919050565b7f45524332303a207472616e7366657220616d6f756e742065786365656473206260008201527f616c616e63650000000000000000000000000000000000000000000000000000602082015250565b6000611669602683610ea8565b91506116748261160d565b604082019050919050565b600060208201905081810360008301526116988161165c565b9050919050565b7f45524332303a206d696e7420746f20746865207a65726f206164647265737300600082015250565b60006116d5601f83610ea8565b91506116e08261169f565b602082019050919050565b60006020820190508181036000830152611704816116c8565b9050919050565b7f45524332303a206275726e2066726f6d20746865207a65726f2061646472657360008201527f7300000000000000000000000000000000000000000000000000000000000000602082015250565b6000611767602183610ea8565b91506117728261170b565b604082019050919050565b600060208201905081810360008301526117968161175a565b9050919050565b7f45524332303a206275726e20616d6f756e7420657863656564732062616c616e60008201527f6365000000000000000000000000000000000000000000000000000000000000602082015250565b60006117f9602283610ea8565b91506118048261179d565b604082019050919050565b60006020820190508181036000830152611828816117ec565b9050919050565b600061183a82610fbb565b915061184583610fbb565b92508282101561185857611857611242565b5b82820390509291505056fea2646970667358221220f7ea110e27825b41acbcbf82768d868f38b8a9c14366dfa32d1171a9b62dc37c64736f6c634300080a0033",
  "devdoc": {
    "kind": "dev",
    "methods": {
      "allowance(address,address)": {
        "details": "See {IERC20-allowance}."
      },
      "approve(address,uint256)": {
        "details": "See {IERC20-approve}. NOTE: If `amount` is the maximum `uint256`, the allowance is not updated on `transferFrom`. This is semantically equivalent to an infinite approval. Requirements: - `spender` cannot be the zero address."
      },
      "balanceOf(address)": {
        "details": "See {IERC20-balanceOf}."
      },
      "decimals()": {
        "details": "Returns the number of decimals used to get its user representation. For example, if `decimals` equals `2`, a balance of `505` tokens should be displayed to a user as `5.05` (`505 / 10 ** 2`). Tokens usually opt for a value of 18, imitating the relationship between Ether and Wei. This is the value {ERC20} uses, unless this function is overridden; NOTE: This information is only used for _display_ purposes: it in no way affects any of the arithmetic of the contract, including {IERC20-balanceOf} and {IERC20-transfer}."
      },
      "decreaseAllowance(address,uint256)": {
        "details": "Atomically decreases the allowance granted to `spender` by the caller. This is an alternative to {approve} that can be used as a mitigation for problems described in {IERC20-approve}. Emits an {Approval} event indicating the updated allowance. Requirements: - `spender` cannot be the zero address. - `spender` must have allowance for the caller of at least `subtractedValue`."
      },
      "increaseAllowance(address,uint256)": {
        "details": "Atomically increases the allowance granted to `spender` by the caller. This is an alternative to {approve} that can be used as a mitigation for problems described in {IERC20-approve}. Emits an {Approval} event indicating the updated allowance. Requirements: - `spender` cannot be the zero address."
      },
      "name()": {
        "details": "Returns the name of the token."
      },
      "symbol()": {
        "details": "Returns the symbol of the token, usually a shorter version of the name."
      },
      "totalSupply()": {
        "details": "See {IERC20-totalSupply}."
      },
      "transfer(address,uint256)": {
        "details": "See {IERC20-transfer}. Requirements: - `to` cannot be the zero address. - the caller must have a balance of at least `amount`."
      },
      "transferFrom(address,address,uint256)": {
        "details": "See {IERC20-transferFrom}. Emits an {Approval} event indicating the updated allowance. This is not required by the EIP. See the note at the beginning of {ERC20}. NOTE: Does not update the allowance if the current allowance is the maximum `uint256`. Requirements: - `from` and `to` cannot be the zero address. - `from` must have a balance of at least `amount`. - the caller must have allowance for ``from``'s tokens of at least `amount`."
      }
    },
    "version": 1
  },
  "userdoc": {
    "kind": "user",
    "methods": {},
    "version": 1
  },
  "storageLayout": {
    "storage": [
      {
        "astId": 128,
        "contract": "contracts/mocks/MockERC20.sol:MockUST",
        "label": "_balances",
        "offset": 0,
        "slot": "0",
        "type": "t_mapping(t_address,t_uint256)"
      },
      {
        "astId": 134,
        "contract": "contracts/mocks/MockERC20.sol:MockUST",
        "label": "_allowances",
        "offset": 0,
        "slot": "1",
        "type": "t_mapping(t_address,t_mapping(t_address,t_uint256))"
      },
      {
        "astId": 136,
        "contract": "contracts/mocks/MockERC20.sol:MockUST",
        "label": "_totalSupply",
        "offset": 0,
        "slot": "2",
        "type": "t_uint256"
      },
      {
        "astId": 138,
        "contract": "contracts/mocks/MockERC20.sol:MockUST",
        "label": "_name",
        "offset": 0,
        "slot": "3",
        "type": "t_string_storage"
      },
      {
        "astId": 140,
        "contract": "contracts/mocks/MockERC20.sol:MockUST",
        "label": "_symbol",
        "offset": 0,
        "slot": "4",
        "type": "t_string_storage"
      },
      {
        "astId": 1754,
        "contract": "contracts/mocks/MockERC20.sol:MockUST",
        "label": "decimals_",
        "offset": 0,
        "slot": "5",
        "type": "t_uint8"
      }
    ],
    "types": {
      "t_address": {
        "encoding": "inplace",
        "label": "address",
        "numberOfBytes": "20"
      },
      "t_mapping(t_address,t_mapping(t_address,t_uint256))": {
        "encoding": "mapping",
        "key": "t_address",
        "label": "mapping(address => mapping(address => uint256))",
        "numberOfBytes": "32",
        "value": "t_mapping(t_address,t_uint256)"
      },
      "t_mapping(t_address,t_uint256)": {
        "encoding": "mapping",
        "key": "t_address",
        "label": "mapping(address => uint256)",
        "numberOfBytes": "32",
        "value": "t_uint256"
      },
      "t_string_storage": {
        "encoding": "bytes",
        "label": "string",
        "numberOfBytes": "32"
      },
      "t_uint256": {
        "encoding": "inplace",
        "label": "uint256",
        "numberOfBytes": "32"
      },
      "t_uint8": {
        "encoding": "inplace",
        "label": "uint8",
        "numberOfBytes": "1"
      }
    }
  }
}