{
  "address": "0x5FC8d32690cc91D4c39d9d3abcBD16989F875707",
  "abi": [
    {
      "inputs": [
        {
          "internalType": "address",
          "name": "_mugen",
          "type": "address"
        }
      ],
      "stateMutability": "nonpayable",
      "type": "constructor"
    },
    {
      "inputs": [],
      "name": "NotDepositable",
      "type": "error"
    },
    {
      "anonymous": false,
      "inputs": [
        {
          "indexed": true,
          "internalType": "address",
          "name": "previousOwner",
          "type": "address"
        },
        {
          "indexed": true,
          "internalType": "address",
          "name": "newOwner",
          "type": "address"
        }
      ],
      "name": "OwnershipTransferred",
      "type": "event"
    },
    {
      "inputs": [],
      "name": "Mugen",
      "outputs": [
        {
          "internalType": "contract IMugen",
          "name": "",
          "type": "address"
        }
      ],
      "stateMutability": "view",
      "type": "function"
    },
    {
      "inputs": [
        {
          "internalType": "contract IERC20",
          "name": "_token",
          "type": "address"
        },
        {
          "internalType": "address",
          "name": "_pricefeed",
          "type": "address"
        }
      ],
      "name": "addTokenInfo",
      "outputs": [],
      "stateMutability": "nonpayable",
      "type": "function"
    },
    {
      "inputs": [
        {
          "internalType": "contract IERC20",
          "name": "_token",
          "type": "address"
        }
      ],
      "name": "checkDepositable",
      "outputs": [
        {
          "internalType": "bool",
          "name": "",
          "type": "bool"
        }
      ],
      "stateMutability": "view",
      "type": "function"
    },
    {
      "inputs": [
        {
          "internalType": "contract IERC20",
          "name": "_token",
          "type": "address"
        },
        {
          "internalType": "uint256",
          "name": "_amount",
          "type": "uint256"
        }
      ],
      "name": "deposit",
      "outputs": [],
      "stateMutability": "nonpayable",
      "type": "function"
    },
    {
      "inputs": [
        {
          "internalType": "contract IERC20",
          "name": "",
          "type": "address"
        }
      ],
      "name": "depositableTokens",
      "outputs": [
        {
          "internalType": "bool",
          "name": "",
          "type": "bool"
        }
      ],
      "stateMutability": "view",
      "type": "function"
    },
    {
      "inputs": [
        {
          "internalType": "contract IERC20",
          "name": "_token",
          "type": "address"
        }
      ],
      "name": "getPrice",
      "outputs": [
        {
          "internalType": "uint256",
          "name": "",
          "type": "uint256"
        }
      ],
      "stateMutability": "view",
      "type": "function"
    },
    {
      "inputs": [],
      "name": "owner",
      "outputs": [
        {
          "internalType": "address",
          "name": "",
          "type": "address"
        }
      ],
      "stateMutability": "view",
      "type": "function"
    },
    {
      "inputs": [
        {
          "internalType": "contract IERC20",
          "name": "",
          "type": "address"
        }
      ],
      "name": "priceFeeds",
      "outputs": [
        {
          "internalType": "contract AggregatorV3Interface",
          "name": "",
          "type": "address"
        }
      ],
      "stateMutability": "view",
      "type": "function"
    },
    {
      "inputs": [],
      "name": "readPrice",
      "outputs": [
        {
          "internalType": "uint256",
          "name": "",
          "type": "uint256"
        }
      ],
      "stateMutability": "view",
      "type": "function"
    },
    {
      "inputs": [],
      "name": "readValue",
      "outputs": [
        {
          "internalType": "uint256",
          "name": "",
          "type": "uint256"
        }
      ],
      "stateMutability": "view",
      "type": "function"
    },
    {
      "inputs": [
        {
          "internalType": "contract IERC20",
          "name": "_token",
          "type": "address"
        }
      ],
      "name": "removeTokenInfo",
      "outputs": [],
      "stateMutability": "nonpayable",
      "type": "function"
    },
    {
      "inputs": [],
      "name": "renounceOwnership",
      "outputs": [],
      "stateMutability": "nonpayable",
      "type": "function"
    },
    {
      "inputs": [
        {
          "internalType": "address",
          "name": "newOwner",
          "type": "address"
        }
      ],
      "name": "transferOwnership",
      "outputs": [],
      "stateMutability": "nonpayable",
      "type": "function"
    },
    {
      "inputs": [
        {
          "internalType": "contract IERC20",
          "name": "_token",
          "type": "address"
        }
      ],
      "name": "usdPrice",
      "outputs": [
        {
          "internalType": "uint256",
          "name": "",
          "type": "uint256"
        }
      ],
      "stateMutability": "view",
      "type": "function"
    },
    {
      "inputs": [
        {
          "internalType": "contract IERC20",
          "name": "_token",
          "type": "address"
        },
        {
          "internalType": "uint256",
          "name": "_amount",
          "type": "uint256"
        }
      ],
      "name": "withdraw",
      "outputs": [],
      "stateMutability": "nonpayable",
      "type": "function"
    }
  ],
  "transactionHash": "0xaa56783f1504cacc79dd30dd51490f7608b8fcd3cfeb923d1588521f2c836287",
  "args": [
    "0xDc64a140Aa3E981100a9becA4E685f962f0cF6C9"
  ],
  "numDeployments": 1,
  "solcInputHash": "04ae6da7d18d000265dc3c17b16bfbd5",
  "bytecode": "0x60806040523480156200001157600080fd5b5060405162001afa38038062001afa833981810160405281019062000037919062000182565b620000576200004b6200009f60201b60201c565b620000a760201b60201c565b80600160006101000a81548173ffffffffffffffffffffffffffffffffffffffff021916908373ffffffffffffffffffffffffffffffffffffffff1602179055505062000207565b600033905090565b60008060009054906101000a900473ffffffffffffffffffffffffffffffffffffffff169050816000806101000a81548173ffffffffffffffffffffffffffffffffffffffff021916908373ffffffffffffffffffffffffffffffffffffffff1602179055508173ffffffffffffffffffffffffffffffffffffffff168173ffffffffffffffffffffffffffffffffffffffff167f8be0079c531659141344cd1fd0a4f28419497f9722a3daafe3b4186f6b6457e060405160405180910390a35050565b6000815190506200017c81620001ed565b92915050565b6000602082840312156200019b576200019a620001e8565b5b6000620001ab848285016200016b565b91505092915050565b6000620001c182620001c8565b9050919050565b600073ffffffffffffffffffffffffffffffffffffffff82169050919050565b600080fd5b620001f881620001b4565b81146200020457600080fd5b50565b6118e380620002176000396000f3fe608060405234801561001057600080fd5b50600436106100f55760003560e01c806384449e6a11610097578063c14edd7911610066578063c14edd7914610274578063f2fde38b146102a4578063f3fef3a3146102c0578063f8d9c0ae146102dc576100f5565b806384449e6a146101da5780638da5cb5b1461020a57806395e4c77f146102285780639dcb511a14610244576100f5565b806347e7ef24116100d357806347e7ef2414610178578063715018a6146101945780637e91400f1461019e57806382da2e57146101bc576100f5565b80630c31264d146100fa57806333ed21831461012a57806341976e0914610148575b600080fd5b610114600480360381019061010f9190610fb0565b6102f8565b60405161012191906112f1565b60405180910390f35b61013261034e565b60405161013f9190611327565b60405180910390f35b610162600480360381019061015d9190610fb0565b610374565b60405161016f9190611424565b60405180910390f35b610192600480360381019061018d919061101d565b610463565b005b61019c6106b4565b005b6101a66106c8565b6040516101b39190611424565b60405180910390f35b6101c46106d2565b6040516101d19190611424565b60405180910390f35b6101f460048036038101906101ef9190610fb0565b6106dc565b6040516102019190611424565b60405180910390f35b61021261070f565b60405161021f9190611276565b60405180910390f35b610242600480360381019061023d9190610fb0565b610738565b005b61025e60048036038101906102599190610fb0565b6107f4565b60405161026b919061130c565b60405180910390f35b61028e60048036038101906102899190610fb0565b610827565b60405161029b91906112f1565b60405180910390f35b6102be60048036038101906102b99190610f56565b610847565b005b6102da60048036038101906102d5919061101d565b6108cb565b005b6102f660048036038101906102f19190610fdd565b610965565b005b6000600260008373ffffffffffffffffffffffffffffffffffffffff1673ffffffffffffffffffffffffffffffffffffffff16815260200190815260200160002060009054906101000a900460ff169050919050565b600160009054906101000a900473ffffffffffffffffffffffffffffffffffffffff1681565b600080600360008473ffffffffffffffffffffffffffffffffffffffff1673ffffffffffffffffffffffffffffffffffffffff16815260200190815260200160002060009054906101000a900473ffffffffffffffffffffffffffffffffffffffff1673ffffffffffffffffffffffffffffffffffffffff1663feaf968c6040518163ffffffff1660e01b815260040160a06040518083038186803b15801561041c57600080fd5b505afa158015610430573d6000803e3d6000fd5b505050506040513d601f19601f82011682018060405250810190610454919061105d565b50505091505080915050919050565b8160011515600260008373ffffffffffffffffffffffffffffffffffffffff1673ffffffffffffffffffffffffffffffffffffffff16815260200190815260200160002060009054906101000a900460ff161515146104ee576040517fe2c4ae6700000000000000000000000000000000000000000000000000000000815260040160405180910390fd5b60008211610531576040517f08c379a0000000000000000000000000000000000000000000000000000000008152600401610528906113a4565b60405180910390fd5b6000600554141561055f5768056bc75e2d63100000600560008282546105579190611471565b925050819055505b60006105aa610581670de0b6b3a7640000600554610a4790919063ffffffff16565b61059c8561058e886106dc565b610a5d90919063ffffffff16565b610a4790919063ffffffff16565b905080600460008282546105be9190611471565b925050819055506105da6103e882610a4790919063ffffffff16565b600560008282546105eb9190611471565b9250508190555061061f3330858773ffffffffffffffffffffffffffffffffffffffff16610a73909392919063ffffffff16565b600160009054906101000a900473ffffffffffffffffffffffffffffffffffffffff1673ffffffffffffffffffffffffffffffffffffffff166340c10f1933836040518363ffffffff1660e01b815260040161067c9291906112c8565b600060405180830381600087803b15801561069657600080fd5b505af11580156106aa573d6000803e3d6000fd5b5050505050505050565b6106bc610afc565b6106c66000610b7a565b565b6000600554905090565b6000600454905090565b6000806106e883610374565b905060006107036305f5e10083610a4790919063ffffffff16565b90508092505050919050565b60008060009054906101000a900473ffffffffffffffffffffffffffffffffffffffff16905090565b610740610afc565b600260008273ffffffffffffffffffffffffffffffffffffffff1673ffffffffffffffffffffffffffffffffffffffff16815260200190815260200160002060006101000a81549060ff0219169055600360008273ffffffffffffffffffffffffffffffffffffffff1673ffffffffffffffffffffffffffffffffffffffff16815260200190815260200160002060006101000a81549073ffffffffffffffffffffffffffffffffffffffff021916905550565b60036020528060005260406000206000915054906101000a900473ffffffffffffffffffffffffffffffffffffffff1681565b60026020528060005260406000206000915054906101000a900460ff1681565b61084f610afc565b600073ffffffffffffffffffffffffffffffffffffffff168173ffffffffffffffffffffffffffffffffffffffff1614156108bf576040517f08c379a00000000000000000000000000000000000000000000000000000000081526004016108b690611364565b60405180910390fd5b6108c881610b7a565b50565b6108d3610afc565b8173ffffffffffffffffffffffffffffffffffffffff1663a9059cbb33836040518363ffffffff1660e01b815260040161090e9291906112c8565b602060405180830381600087803b15801561092857600080fd5b505af115801561093c573d6000803e3d6000fd5b505050506040513d601f19601f820116820180604052508101906109609190610f83565b505050565b61096d610afc565b80600360008473ffffffffffffffffffffffffffffffffffffffff1673ffffffffffffffffffffffffffffffffffffffff16815260200190815260200160002060006101000a81548173ffffffffffffffffffffffffffffffffffffffff021916908373ffffffffffffffffffffffffffffffffffffffff1602179055506001600260008473ffffffffffffffffffffffffffffffffffffffff1673ffffffffffffffffffffffffffffffffffffffff16815260200190815260200160002060006101000a81548160ff0219169083151502179055505050565b60008183610a5591906114c7565b905092915050565b60008183610a6b91906114f8565b905092915050565b610af6846323b872dd60e01b858585604051602401610a9493929190611291565b604051602081830303815290604052907bffffffffffffffffffffffffffffffffffffffffffffffffffffffff19166020820180517bffffffffffffffffffffffffffffffffffffffffffffffffffffffff8381831617835250505050610c3e565b50505050565b610b04610d05565b73ffffffffffffffffffffffffffffffffffffffff16610b2261070f565b73ffffffffffffffffffffffffffffffffffffffff1614610b78576040517f08c379a0000000000000000000000000000000000000000000000000000000008152600401610b6f906113c4565b60405180910390fd5b565b60008060009054906101000a900473ffffffffffffffffffffffffffffffffffffffff169050816000806101000a81548173ffffffffffffffffffffffffffffffffffffffff021916908373ffffffffffffffffffffffffffffffffffffffff1602179055508173ffffffffffffffffffffffffffffffffffffffff168173ffffffffffffffffffffffffffffffffffffffff167f8be0079c531659141344cd1fd0a4f28419497f9722a3daafe3b4186f6b6457e060405160405180910390a35050565b6000610ca0826040518060400160405280602081526020017f5361666545524332303a206c6f772d6c6576656c2063616c6c206661696c65648152508573ffffffffffffffffffffffffffffffffffffffff16610d0d9092919063ffffffff16565b9050600081511115610d005780806020019051810190610cc09190610f83565b610cff576040517f08c379a0000000000000000000000000000000000000000000000000000000008152600401610cf690611404565b60405180910390fd5b5b505050565b600033905090565b6060610d1c8484600085610d25565b90509392505050565b606082471015610d6a576040517f08c379a0000000000000000000000000000000000000000000000000000000008152600401610d6190611384565b60405180910390fd5b610d7385610e39565b610db2576040517f08c379a0000000000000000000000000000000000000000000000000000000008152600401610da9906113e4565b60405180910390fd5b6000808673ffffffffffffffffffffffffffffffffffffffff168587604051610ddb919061125f565b60006040518083038185875af1925050503d8060008114610e18576040519150601f19603f3d011682016040523d82523d6000602084013e610e1d565b606091505b5091509150610e2d828286610e5c565b92505050949350505050565b6000808273ffffffffffffffffffffffffffffffffffffffff163b119050919050565b60608315610e6c57829050610ebc565b600083511115610e7f5782518084602001fd5b816040517f08c379a0000000000000000000000000000000000000000000000000000000008152600401610eb39190611342565b60405180910390fd5b9392505050565b600081359050610ed281611823565b92915050565b600081519050610ee78161183a565b92915050565b600081359050610efc81611851565b92915050565b600081519050610f1181611868565b92915050565b600081359050610f268161187f565b92915050565b600081519050610f3b8161187f565b92915050565b600081519050610f5081611896565b92915050565b600060208284031215610f6c57610f6b6116a5565b5b6000610f7a84828501610ec3565b91505092915050565b600060208284031215610f9957610f986116a5565b5b6000610fa784828501610ed8565b91505092915050565b600060208284031215610fc657610fc56116a5565b5b6000610fd484828501610eed565b91505092915050565b60008060408385031215610ff457610ff36116a5565b5b600061100285828601610eed565b925050602061101385828601610ec3565b9150509250929050565b60008060408385031215611034576110336116a5565b5b600061104285828601610eed565b925050602061105385828601610f17565b9150509250929050565b600080600080600060a08688031215611079576110786116a5565b5b600061108788828901610f41565b955050602061109888828901610f02565b94505060406110a988828901610f2c565b93505060606110ba88828901610f2c565b92505060806110cb88828901610f41565b9150509295509295909350565b6110e181611552565b82525050565b6110f081611564565b82525050565b60006111018261143f565b61110b8185611455565b935061111b818560208601611614565b80840191505092915050565b611130816115cc565b82525050565b61113f816115de565b82525050565b60006111508261144a565b61115a8185611460565b935061116a818560208601611614565b611173816116aa565b840191505092915050565b600061118b602683611460565b9150611196826116bb565b604082019050919050565b60006111ae602683611460565b91506111b98261170a565b604082019050919050565b60006111d1601b83611460565b91506111dc82611759565b602082019050919050565b60006111f4602083611460565b91506111ff82611782565b602082019050919050565b6000611217601d83611460565b9150611222826117ab565b602082019050919050565b600061123a602a83611460565b9150611245826117d4565b604082019050919050565b611259816115ac565b82525050565b600061126b82846110f6565b915081905092915050565b600060208201905061128b60008301846110d8565b92915050565b60006060820190506112a660008301866110d8565b6112b360208301856110d8565b6112c06040830184611250565b949350505050565b60006040820190506112dd60008301856110d8565b6112ea6020830184611250565b9392505050565b600060208201905061130660008301846110e7565b92915050565b60006020820190506113216000830184611127565b92915050565b600060208201905061133c6000830184611136565b92915050565b6000602082019050818103600083015261135c8184611145565b905092915050565b6000602082019050818103600083015261137d8161117e565b9050919050565b6000602082019050818103600083015261139d816111a1565b9050919050565b600060208201905081810360008301526113bd816111c4565b9050919050565b600060208201905081810360008301526113dd816111e7565b9050919050565b600060208201905081810360008301526113fd8161120a565b9050919050565b6000602082019050818103600083015261141d8161122d565b9050919050565b60006020820190506114396000830184611250565b92915050565b600081519050919050565b600081519050919050565b600081905092915050565b600082825260208201905092915050565b600061147c826115ac565b9150611487836115ac565b9250827fffffffffffffffffffffffffffffffffffffffffffffffffffffffffffffffff038211156114bc576114bb611647565b5b828201905092915050565b60006114d2826115ac565b91506114dd836115ac565b9250826114ed576114ec611676565b5b828204905092915050565b6000611503826115ac565b915061150e836115ac565b9250817fffffffffffffffffffffffffffffffffffffffffffffffffffffffffffffffff048311821515161561154757611546611647565b5b828202905092915050565b600061155d8261158c565b9050919050565b60008115159050919050565b600061157b82611552565b9050919050565b6000819050919050565b600073ffffffffffffffffffffffffffffffffffffffff82169050919050565b6000819050919050565b600069ffffffffffffffffffff82169050919050565b60006115d7826115f0565b9050919050565b60006115e9826115f0565b9050919050565b60006115fb82611602565b9050919050565b600061160d8261158c565b9050919050565b60005b83811015611632578082015181840152602081019050611617565b83811115611641576000848401525b50505050565b7f4e487b7100000000000000000000000000000000000000000000000000000000600052601160045260246000fd5b7f4e487b7100000000000000000000000000000000000000000000000000000000600052601260045260246000fd5b600080fd5b6000601f19601f8301169050919050565b7f4f776e61626c653a206e6577206f776e657220697320746865207a65726f206160008201527f6464726573730000000000000000000000000000000000000000000000000000602082015250565b7f416464726573733a20696e73756666696369656e742062616c616e636520666f60008201527f722063616c6c0000000000000000000000000000000000000000000000000000602082015250565b7f4465706f736974206d757374206265206d6f7265207468616e20300000000000600082015250565b7f4f776e61626c653a2063616c6c6572206973206e6f7420746865206f776e6572600082015250565b7f416464726573733a2063616c6c20746f206e6f6e2d636f6e7472616374000000600082015250565b7f5361666545524332303a204552433230206f7065726174696f6e20646964206e60008201527f6f74207375636365656400000000000000000000000000000000000000000000602082015250565b61182c81611552565b811461183757600080fd5b50565b61184381611564565b811461184e57600080fd5b50565b61185a81611570565b811461186557600080fd5b50565b61187181611582565b811461187c57600080fd5b50565b611888816115ac565b811461189357600080fd5b50565b61189f816115b6565b81146118aa57600080fd5b5056fea26469706673582212200e735efe4edff1b5f4137ea7991f4e84864debb03f49423a3798f154b1c8945264736f6c63430008070033",
  "devdoc": {
    "kind": "dev",
    "methods": {
      "owner()": {
        "details": "Returns the address of the current owner."
      },
      "renounceOwnership()": {
        "details": "Leaves the contract without owner. It will not be possible to call `onlyOwner` functions anymore. Can only be called by the current owner. NOTE: Renouncing ownership will leave the contract without an owner, thereby removing any functionality that is only available to the owner."
      },
      "transferOwnership(address)": {
        "details": "Transfers ownership of the contract to a new account (`newOwner`). Can only be called by the current owner."
      }
    },
    "version": 1
  },
  "userdoc": {
    "kind": "user",
    "methods": {},
    "version": 1
  },
  "storageLayout": {
    "storage": [
      {
        "astId": 7,
        "contract": "contracts/Treasury.sol:Treasury",
        "label": "_owner",
        "offset": 0,
        "slot": "0",
        "type": "t_address"
      },
      {
        "astId": 1796,
        "contract": "contracts/Treasury.sol:Treasury",
        "label": "Mugen",
        "offset": 0,
        "slot": "1",
        "type": "t_contract(IMugen)2134"
      },
      {
        "astId": 1801,
        "contract": "contracts/Treasury.sol:Treasury",
        "label": "depositableTokens",
        "offset": 0,
        "slot": "2",
        "type": "t_mapping(t_contract(IERC20)776,t_bool)"
      },
      {
        "astId": 1807,
        "contract": "contracts/Treasury.sol:Treasury",
        "label": "priceFeeds",
        "offset": 0,
        "slot": "3",
        "type": "t_mapping(t_contract(IERC20)776,t_contract(AggregatorV3Interface)2121)"
      },
      {
        "astId": 1816,
        "contract": "contracts/Treasury.sol:Treasury",
        "label": "valueDeposited",
        "offset": 0,
        "slot": "4",
        "type": "t_uint256"
      },
      {
        "astId": 1818,
        "contract": "contracts/Treasury.sol:Treasury",
        "label": "tokenMintPrice",
        "offset": 0,
        "slot": "5",
        "type": "t_uint256"
      }
    ],
    "types": {
      "t_address": {
        "encoding": "inplace",
        "label": "address",
        "numberOfBytes": "20"
      },
      "t_bool": {
        "encoding": "inplace",
        "label": "bool",
        "numberOfBytes": "1"
      },
      "t_contract(AggregatorV3Interface)2121": {
        "encoding": "inplace",
        "label": "contract AggregatorV3Interface",
        "numberOfBytes": "20"
      },
      "t_contract(IERC20)776": {
        "encoding": "inplace",
        "label": "contract IERC20",
        "numberOfBytes": "20"
      },
      "t_contract(IMugen)2134": {
        "encoding": "inplace",
        "label": "contract IMugen",
        "numberOfBytes": "20"
      },
      "t_mapping(t_contract(IERC20)776,t_bool)": {
        "encoding": "mapping",
        "key": "t_contract(IERC20)776",
        "label": "mapping(contract IERC20 => bool)",
        "numberOfBytes": "32",
        "value": "t_bool"
      },
      "t_mapping(t_contract(IERC20)776,t_contract(AggregatorV3Interface)2121)": {
        "encoding": "mapping",
        "key": "t_contract(IERC20)776",
        "label": "mapping(contract IERC20 => contract AggregatorV3Interface)",
        "numberOfBytes": "32",
        "value": "t_contract(AggregatorV3Interface)2121"
      },
      "t_uint256": {
        "encoding": "inplace",
        "label": "uint256",
        "numberOfBytes": "32"
      }
    }
  }
}