{
  "address": "0x2F6d2e9f51315dbA63F0C2e1C54cF9FdE287a1af",
  "abi": [
    {
      "inputs": [
        {
          "internalType": "address",
          "name": "_rewardRouterV2",
          "type": "address"
        },
        {
          "internalType": "address",
          "name": "_weth",
          "type": "address"
        }
      ],
      "stateMutability": "nonpayable",
      "type": "constructor"
    },
    {
      "inputs": [],
      "name": "AdminRemoved",
      "type": "error"
    },
    {
      "inputs": [],
      "name": "NotEnoughYield",
      "type": "error"
    },
    {
      "inputs": [],
      "name": "NotOwner",
      "type": "error"
    },
    {
      "inputs": [],
      "name": "TooSoon",
      "type": "error"
    },
    {
      "anonymous": false,
      "inputs": [
        {
          "indexed": true,
          "internalType": "address",
          "name": "_caller",
          "type": "address"
        },
        {
          "indexed": false,
          "internalType": "uint256",
          "name": "_amount",
          "type": "uint256"
        }
      ],
      "name": "EsGMXStaked",
      "type": "event"
    },
    {
      "anonymous": false,
      "inputs": [
        {
          "indexed": true,
          "internalType": "address",
          "name": "_caller",
          "type": "address"
        },
        {
          "indexed": true,
          "internalType": "address",
          "name": "_token",
          "type": "address"
        },
        {
          "indexed": false,
          "internalType": "uint256",
          "name": "_amount",
          "type": "uint256"
        },
        {
          "indexed": false,
          "internalType": "uint256",
          "name": "_glpAmount",
          "type": "uint256"
        }
      ],
      "name": "GlpMinted",
      "type": "event"
    },
    {
      "anonymous": false,
      "inputs": [
        {
          "indexed": true,
          "internalType": "address",
          "name": "previousOwner",
          "type": "address"
        },
        {
          "indexed": true,
          "internalType": "address",
          "name": "newOwner",
          "type": "address"
        }
      ],
      "name": "OwnershipTransferred",
      "type": "event"
    },
    {
      "anonymous": false,
      "inputs": [
        {
          "indexed": true,
          "internalType": "address",
          "name": "_caller",
          "type": "address"
        },
        {
          "indexed": false,
          "internalType": "uint256",
          "name": "_amount",
          "type": "uint256"
        }
      ],
      "name": "Unstaked",
      "type": "event"
    },
    {
      "anonymous": false,
      "inputs": [
        {
          "indexed": true,
          "internalType": "address",
          "name": "_caller",
          "type": "address"
        },
        {
          "indexed": false,
          "internalType": "uint256",
          "name": "_amount",
          "type": "uint256"
        }
      ],
      "name": "YieldTransfered",
      "type": "event"
    },
    {
      "inputs": [],
      "name": "ES_GMX",
      "outputs": [
        {
          "internalType": "address",
          "name": "",
          "type": "address"
        }
      ],
      "stateMutability": "view",
      "type": "function"
    },
    {
      "inputs": [],
      "name": "adminRemoved",
      "outputs": [
        {
          "internalType": "bool",
          "name": "",
          "type": "bool"
        }
      ],
      "stateMutability": "view",
      "type": "function"
    },
    {
      "inputs": [],
      "name": "administrator",
      "outputs": [
        {
          "internalType": "address",
          "name": "",
          "type": "address"
        }
      ],
      "stateMutability": "view",
      "type": "function"
    },
    {
      "inputs": [],
      "name": "claimRewards",
      "outputs": [],
      "stateMutability": "nonpayable",
      "type": "function"
    },
    {
      "inputs": [],
      "name": "claimable",
      "outputs": [
        {
          "internalType": "uint256",
          "name": "",
          "type": "uint256"
        }
      ],
      "stateMutability": "view",
      "type": "function"
    },
    {
      "inputs": [],
      "name": "compound",
      "outputs": [],
      "stateMutability": "nonpayable",
      "type": "function"
    },
    {
      "inputs": [],
      "name": "compounded",
      "outputs": [
        {
          "internalType": "uint256",
          "name": "",
          "type": "uint256"
        }
      ],
      "stateMutability": "view",
      "type": "function"
    },
    {
      "inputs": [
        {
          "internalType": "address",
          "name": "_token",
          "type": "address"
        },
        {
          "internalType": "uint256",
          "name": "_minUsdg",
          "type": "uint256"
        },
        {
          "internalType": "uint256",
          "name": "_minGlp",
          "type": "uint256"
        }
      ],
      "name": "mintGLP",
      "outputs": [],
      "stateMutability": "nonpayable",
      "type": "function"
    },
    {
      "inputs": [],
      "name": "owner",
      "outputs": [
        {
          "internalType": "address",
          "name": "",
          "type": "address"
        }
      ],
      "stateMutability": "view",
      "type": "function"
    },
    {
      "inputs": [],
      "name": "removeAdmin",
      "outputs": [],
      "stateMutability": "nonpayable",
      "type": "function"
    },
    {
      "inputs": [],
      "name": "renounceOwnership",
      "outputs": [],
      "stateMutability": "nonpayable",
      "type": "function"
    },
    {
      "inputs": [
        {
          "internalType": "address",
          "name": "newAdmin",
          "type": "address"
        }
      ],
      "name": "replaceAdmin",
      "outputs": [],
      "stateMutability": "nonpayable",
      "type": "function"
    },
    {
      "inputs": [
        {
          "internalType": "address",
          "name": "_tokenOut",
          "type": "address"
        },
        {
          "internalType": "uint256",
          "name": "_glpAmount",
          "type": "uint256"
        },
        {
          "internalType": "uint256",
          "name": "_minOut",
          "type": "uint256"
        }
      ],
      "name": "sellGlp",
      "outputs": [],
      "stateMutability": "nonpayable",
      "type": "function"
    },
    {
      "inputs": [
        {
          "internalType": "address",
          "name": "_yield",
          "type": "address"
        }
      ],
      "name": "setYieldDistributor",
      "outputs": [],
      "stateMutability": "nonpayable",
      "type": "function"
    },
    {
      "inputs": [],
      "name": "stakeGMXRewards",
      "outputs": [],
      "stateMutability": "nonpayable",
      "type": "function"
    },
    {
      "inputs": [
        {
          "internalType": "address",
          "name": "newOwner",
          "type": "address"
        }
      ],
      "name": "transferOwnership",
      "outputs": [],
      "stateMutability": "nonpayable",
      "type": "function"
    },
    {
      "inputs": [],
      "name": "transferYield",
      "outputs": [],
      "stateMutability": "nonpayable",
      "type": "function"
    },
    {
      "inputs": [
        {
          "internalType": "uint256",
          "name": "_amount",
          "type": "uint256"
        }
      ],
      "name": "unstake",
      "outputs": [],
      "stateMutability": "nonpayable",
      "type": "function"
    },
    {
      "inputs": [],
      "name": "weth",
      "outputs": [
        {
          "internalType": "address",
          "name": "",
          "type": "address"
        }
      ],
      "stateMutability": "view",
      "type": "function"
    },
    {
      "inputs": [],
      "name": "yieldDistributor",
      "outputs": [
        {
          "internalType": "address",
          "name": "",
          "type": "address"
        }
      ],
      "stateMutability": "view",
      "type": "function"
    }
  ],
  "transactionHash": "0xf677cb47e928df94929b1558664571ce01f5a51f005238ca41f8b6ee4582c337",
  "args": [
    "0xa906f338cb21815cbc4bc87ace9e68c87ef8d8f1",
    "0x82af49447d8a07e3bd95bd0d56f35241523fbab1"
  ],
  "numDeployments": 1,
  "solcInputHash": "27d56021528841c7ddf6e2b4dd5b6de1",
  "bytecode": "0x60a06040526000600660006101000a81548160ff0219169083151502179055503480156200002c57600080fd5b506040516200218e3803806200218e833981810160405281019062000052919062000216565b62000072620000666200013360201b60201c565b6200013b60201b60201c565b81600160006101000a81548173ffffffffffffffffffffffffffffffffffffffff021916908373ffffffffffffffffffffffffffffffffffffffff16021790555033600260006101000a81548173ffffffffffffffffffffffffffffffffffffffff021916908373ffffffffffffffffffffffffffffffffffffffff1602179055508073ffffffffffffffffffffffffffffffffffffffff1660808173ffffffffffffffffffffffffffffffffffffffff1660601b815250505050620002b0565b600033905090565b60008060009054906101000a900473ffffffffffffffffffffffffffffffffffffffff169050816000806101000a81548173ffffffffffffffffffffffffffffffffffffffff021916908373ffffffffffffffffffffffffffffffffffffffff1602179055508173ffffffffffffffffffffffffffffffffffffffff168173ffffffffffffffffffffffffffffffffffffffff167f8be0079c531659141344cd1fd0a4f28419497f9722a3daafe3b4186f6b6457e060405160405180910390a35050565b600081519050620002108162000296565b92915050565b6000806040838503121562000230576200022f62000291565b5b60006200024085828601620001ff565b92505060206200025385828601620001ff565b9150509250929050565b60006200026a8262000271565b9050919050565b600073ffffffffffffffffffffffffffffffffffffffff82169050919050565b600080fd5b620002a1816200025d565b8114620002ad57600080fd5b50565b60805160601c611eaa620002e46000396000818161083e01528181610a2901528181610b0b0152610bdd0152611eaa6000f3fe608060405234801561001057600080fd5b506004361061012c5760003560e01c80638d6d776c116100ad578063c4f4face11610071578063c4f4face1461029b578063c84a108e146102b7578063f2fde38b146102c1578063f53d0a8e146102dd578063f69e2046146102fb5761012c565b80638d6d776c1461022d5780638da5cb5b146102375780639a202d4714610255578063a38c2c3d1461025f578063af38d7571461027d5761012c565b806341bdb954116100f457806341bdb954146101ad5780635e2b7cab146101cb578063715018a6146101e95780637b5eba0f146101f35780638b7598311461020f5761012c565b8063242e9a9f146101315780632e17de781461014d5780633038a60d14610169578063372500ab146101855780633fc8cef31461018f575b600080fd5b61014b60048036038101906101469190611716565b610305565b005b61016760048036038101906101629190611796565b6104b7565b005b610183600480360381019061017e91906116e9565b61065c565b005b61018d610767565b005b61019761083c565b6040516101a49190611970565b60405180910390f35b6101b5610860565b6040516101c29190611a3e565b60405180910390f35b6101d3610873565b6040516101e09190611970565b60405180910390f35b6101f161088b565b005b61020d60048036038101906102089190611716565b61089f565b005b610217610a1f565b6040516102249190611b3b565b60405180910390f35b610235610a25565b005b61023f610c72565b60405161024c9190611970565b60405180910390f35b61025d610c9b565b005b610267610ce7565b6040516102749190611970565b60405180910390f35b610285610d0d565b6040516102929190611b3b565b60405180910390f35b6102b560048036038101906102b091906116e9565b610d13565b005b6102bf610e6b565b005b6102db60048036038101906102d691906116e9565b6110c9565b005b6102e561114d565b6040516102f29190611970565b60405180910390f35b610303611173565b005b60008373ffffffffffffffffffffffffffffffffffffffff166370a08231306040518263ffffffff1660e01b81526004016103409190611970565b60206040518083038186803b15801561035857600080fd5b505afa15801561036c573d6000803e3d6000fd5b505050506040513d601f19601f8201168201806040525081019061039091906117c3565b90506000600160009054906101000a900473ffffffffffffffffffffffffffffffffffffffff1673ffffffffffffffffffffffffffffffffffffffff1663364e2311868487876040518563ffffffff1660e01b81526004016103f594939291906119f9565b602060405180830381600087803b15801561040f57600080fd5b505af1158015610423573d6000803e3d6000fd5b505050506040513d601f19601f8201168201806040525081019061044791906117c3565b90508473ffffffffffffffffffffffffffffffffffffffff163373ffffffffffffffffffffffffffffffffffffffff167f7c38a5b8237c4b8e65dc31f5d0c43502b35f7a697b80872f50cab1e70b9dbd2784846040516104a8929190611b56565b60405180910390a35050505050565b600260009054906101000a900473ffffffffffffffffffffffffffffffffffffffff1673ffffffffffffffffffffffffffffffffffffffff163373ffffffffffffffffffffffffffffffffffffffff161415806105475750610517610c72565b73ffffffffffffffffffffffffffffffffffffffff163373ffffffffffffffffffffffffffffffffffffffff1614155b1561057e576040517f30cd747100000000000000000000000000000000000000000000000000000000815260040160405180910390fd5b600160009054906101000a900473ffffffffffffffffffffffffffffffffffffffff1673ffffffffffffffffffffffffffffffffffffffff166364f64467826040518263ffffffff1660e01b81526004016105d99190611b3b565b600060405180830381600087803b1580156105f357600080fd5b505af1158015610607573d6000803e3d6000fd5b505050503373ffffffffffffffffffffffffffffffffffffffff167f0f5bb82176feb1b5e747e28471aa92156a04d9f3ab9f45f28e2d704232b93f75826040516106519190611b3b565b60405180910390a250565b600260009054906101000a900473ffffffffffffffffffffffffffffffffffffffff1673ffffffffffffffffffffffffffffffffffffffff163373ffffffffffffffffffffffffffffffffffffffff161415806106ec57506106bc610c72565b73ffffffffffffffffffffffffffffffffffffffff163373ffffffffffffffffffffffffffffffffffffffff1614155b15610723576040517f30cd747100000000000000000000000000000000000000000000000000000000815260040160405180910390fd5b80600360006101000a81548173ffffffffffffffffffffffffffffffffffffffff021916908373ffffffffffffffffffffffffffffffffffffffff16021790555050565b4260045411156107a3576040517f6fed7d8500000000000000000000000000000000000000000000000000000000815260040160405180910390fd5b600160009054906101000a900473ffffffffffffffffffffffffffffffffffffffff1673ffffffffffffffffffffffffffffffffffffffff16634e71d92d6040518163ffffffff1660e01b8152600401600060405180830381600087803b15801561080d57600080fd5b505af1158015610821573d6000803e3d6000fd5b5050505062015180426108349190611bb1565b600481905550565b7f000000000000000000000000000000000000000000000000000000000000000081565b600660009054906101000a900460ff1681565b73f42ae1d54fd613c9bb14810b0588faaa09a426ca81565b610893611248565b61089d60006112c6565b565b600260009054906101000a900473ffffffffffffffffffffffffffffffffffffffff1673ffffffffffffffffffffffffffffffffffffffff163373ffffffffffffffffffffffffffffffffffffffff1614158061092f57506108ff610c72565b73ffffffffffffffffffffffffffffffffffffffff163373ffffffffffffffffffffffffffffffffffffffff1614155b15610966576040517f30cd747100000000000000000000000000000000000000000000000000000000815260040160405180910390fd5b600160009054906101000a900473ffffffffffffffffffffffffffffffffffffffff1673ffffffffffffffffffffffffffffffffffffffff16630f3aa554848484306040518563ffffffff1660e01b81526004016109c794939291906119b4565b602060405180830381600087803b1580156109e157600080fd5b505af11580156109f5573d6000803e3d6000fd5b505050506040513d601f19601f82011682018060405250810190610a1991906117c3565b50505050565b60055481565b60007f000000000000000000000000000000000000000000000000000000000000000073ffffffffffffffffffffffffffffffffffffffff166370a08231306040518263ffffffff1660e01b8152600401610a809190611970565b60206040518083038186803b158015610a9857600080fd5b505afa158015610aac573d6000803e3d6000fd5b505050506040513d601f19601f82011682018060405250810190610ad091906117c3565b11610b07576040517f790f31c100000000000000000000000000000000000000000000000000000000815260040160405180910390fd5b60007f000000000000000000000000000000000000000000000000000000000000000073ffffffffffffffffffffffffffffffffffffffff166370a08231306040518263ffffffff1660e01b8152600401610b629190611970565b60206040518083038186803b158015610b7a57600080fd5b505afa158015610b8e573d6000803e3d6000fd5b505050506040513d601f19601f82011682018060405250810190610bb291906117c3565b9050610c21600360009054906101000a900473ffffffffffffffffffffffffffffffffffffffff16827f000000000000000000000000000000000000000000000000000000000000000073ffffffffffffffffffffffffffffffffffffffff1661138a9092919063ffffffff16565b3373ffffffffffffffffffffffffffffffffffffffff167f2dd37dc1796cb6835fa8fcf194a787367ac804ea5acabb19772796a075eae2b382604051610c679190611b3b565b60405180910390a250565b60008060009054906101000a900473ffffffffffffffffffffffffffffffffffffffff16905090565b610ca3611248565b6000600260006101000a81548173ffffffffffffffffffffffffffffffffffffffff021916908373ffffffffffffffffffffffffffffffffffffffff160217905550565b600360009054906101000a900473ffffffffffffffffffffffffffffffffffffffff1681565b60045481565b600260009054906101000a900473ffffffffffffffffffffffffffffffffffffffff1673ffffffffffffffffffffffffffffffffffffffff163373ffffffffffffffffffffffffffffffffffffffff16141580610da35750610d73610c72565b73ffffffffffffffffffffffffffffffffffffffff163373ffffffffffffffffffffffffffffffffffffffff1614155b15610dda576040517f30cd747100000000000000000000000000000000000000000000000000000000815260040160405180910390fd5b60001515600660009054906101000a900460ff16151514610e27576040517f4cfab87900000000000000000000000000000000000000000000000000000000815260040160405180910390fd5b80600260006101000a81548173ffffffffffffffffffffffffffffffffffffffff021916908373ffffffffffffffffffffffffffffffffffffffff16021790555050565b600073f42ae1d54fd613c9bb14810b0588faaa09a426ca73ffffffffffffffffffffffffffffffffffffffff166370a08231306040518263ffffffff1660e01b8152600401610eba9190611970565b60206040518083038186803b158015610ed257600080fd5b505afa158015610ee6573d6000803e3d6000fd5b505050506040513d601f19601f82011682018060405250810190610f0a91906117c3565b11610f4a576040517f08c379a0000000000000000000000000000000000000000000000000000000008152600401610f4190611a9b565b60405180910390fd5b600073f42ae1d54fd613c9bb14810b0588faaa09a426ca73ffffffffffffffffffffffffffffffffffffffff166370a08231306040518263ffffffff1660e01b8152600401610f999190611970565b60206040518083038186803b158015610fb157600080fd5b505afa158015610fc5573d6000803e3d6000fd5b505050506040513d601f19601f82011682018060405250810190610fe991906117c3565b9050600160009054906101000a900473ffffffffffffffffffffffffffffffffffffffff1673ffffffffffffffffffffffffffffffffffffffff1663ef8c5994826040518263ffffffff1660e01b81526004016110469190611b3b565b600060405180830381600087803b15801561106057600080fd5b505af1158015611074573d6000803e3d6000fd5b505050503373ffffffffffffffffffffffffffffffffffffffff167f6ee96f46821dfa8ce2ff27d0c2a45042c112bfbd98665fff5a09a9f3d4857aab826040516110be9190611b3b565b60405180910390a250565b6110d1611248565b600073ffffffffffffffffffffffffffffffffffffffff168173ffffffffffffffffffffffffffffffffffffffff161415611141576040517f08c379a000000000000000000000000000000000000000000000000000000000815260040161113890611a7b565b60405180910390fd5b61114a816112c6565b50565b600260009054906101000a900473ffffffffffffffffffffffffffffffffffffffff1681565b4260055411156111af576040517f6fed7d8500000000000000000000000000000000000000000000000000000000815260040160405180910390fd5b600160009054906101000a900473ffffffffffffffffffffffffffffffffffffffff1673ffffffffffffffffffffffffffffffffffffffff1663f69e20466040518163ffffffff1660e01b8152600401600060405180830381600087803b15801561121957600080fd5b505af115801561122d573d6000803e3d6000fd5b5050505062015180426112409190611bb1565b600581905550565b611250611410565b73ffffffffffffffffffffffffffffffffffffffff1661126e610c72565b73ffffffffffffffffffffffffffffffffffffffff16146112c4576040517f08c379a00000000000000000000000000000000000000000000000000000000081526004016112bb90611adb565b60405180910390fd5b565b60008060009054906101000a900473ffffffffffffffffffffffffffffffffffffffff169050816000806101000a81548173ffffffffffffffffffffffffffffffffffffffff021916908373ffffffffffffffffffffffffffffffffffffffff1602179055508173ffffffffffffffffffffffffffffffffffffffff168173ffffffffffffffffffffffffffffffffffffffff167f8be0079c531659141344cd1fd0a4f28419497f9722a3daafe3b4186f6b6457e060405160405180910390a35050565b61140b8363a9059cbb60e01b84846040516024016113a992919061198b565b604051602081830303815290604052907bffffffffffffffffffffffffffffffffffffffffffffffffffffffff19166020820180517bffffffffffffffffffffffffffffffffffffffffffffffffffffffff8381831617835250505050611418565b505050565b600033905090565b600061147a826040518060400160405280602081526020017f5361666545524332303a206c6f772d6c6576656c2063616c6c206661696c65648152508573ffffffffffffffffffffffffffffffffffffffff166114df9092919063ffffffff16565b90506000815111156114da578080602001905181019061149a9190611769565b6114d9576040517f08c379a00000000000000000000000000000000000000000000000000000000081526004016114d090611b1b565b60405180910390fd5b5b505050565b60606114ee84846000856114f7565b90509392505050565b60608247101561153c576040517f08c379a000000000000000000000000000000000000000000000000000000000815260040161153390611abb565b60405180910390fd5b6115458561160b565b611584576040517f08c379a000000000000000000000000000000000000000000000000000000000815260040161157b90611afb565b60405180910390fd5b6000808673ffffffffffffffffffffffffffffffffffffffff1685876040516115ad9190611959565b60006040518083038185875af1925050503d80600081146115ea576040519150601f19603f3d011682016040523d82523d6000602084013e6115ef565b606091505b50915091506115ff82828661162e565b92505050949350505050565b6000808273ffffffffffffffffffffffffffffffffffffffff163b119050919050565b6060831561163e5782905061168e565b6000835111156116515782518084602001fd5b816040517f08c379a00000000000000000000000000000000000000000000000000000000081526004016116859190611a59565b60405180910390fd5b9392505050565b6000813590506116a481611e2f565b92915050565b6000815190506116b981611e46565b92915050565b6000813590506116ce81611e5d565b92915050565b6000815190506116e381611e5d565b92915050565b6000602082840312156116ff576116fe611cb1565b5b600061170d84828501611695565b91505092915050565b60008060006060848603121561172f5761172e611cb1565b5b600061173d86828701611695565b935050602061174e868287016116bf565b925050604061175f868287016116bf565b9150509250925092565b60006020828403121561177f5761177e611cb1565b5b600061178d848285016116aa565b91505092915050565b6000602082840312156117ac576117ab611cb1565b5b60006117ba848285016116bf565b91505092915050565b6000602082840312156117d9576117d8611cb1565b5b60006117e7848285016116d4565b91505092915050565b6117f981611c07565b82525050565b61180881611c19565b82525050565b600061181982611b7f565b6118238185611b95565b9350611833818560208601611c4f565b80840191505092915050565b600061184a82611b8a565b6118548185611ba0565b9350611864818560208601611c4f565b61186d81611cb6565b840191505092915050565b6000611885602683611ba0565b915061189082611cc7565b604082019050919050565b60006118a8601583611ba0565b91506118b382611d16565b602082019050919050565b60006118cb602683611ba0565b91506118d682611d3f565b604082019050919050565b60006118ee602083611ba0565b91506118f982611d8e565b602082019050919050565b6000611911601d83611ba0565b915061191c82611db7565b602082019050919050565b6000611934602a83611ba0565b915061193f82611de0565b604082019050919050565b61195381611c45565b82525050565b6000611965828461180e565b915081905092915050565b600060208201905061198560008301846117f0565b92915050565b60006040820190506119a060008301856117f0565b6119ad602083018461194a565b9392505050565b60006080820190506119c960008301876117f0565b6119d6602083018661194a565b6119e3604083018561194a565b6119f060608301846117f0565b95945050505050565b6000608082019050611a0e60008301876117f0565b611a1b602083018661194a565b611a28604083018561194a565b611a35606083018461194a565b95945050505050565b6000602082019050611a5360008301846117ff565b92915050565b60006020820190508181036000830152611a73818461183f565b905092915050565b60006020820190508181036000830152611a9481611878565b9050919050565b60006020820190508181036000830152611ab48161189b565b9050919050565b60006020820190508181036000830152611ad4816118be565b9050919050565b60006020820190508181036000830152611af4816118e1565b9050919050565b60006020820190508181036000830152611b1481611904565b9050919050565b60006020820190508181036000830152611b3481611927565b9050919050565b6000602082019050611b50600083018461194a565b92915050565b6000604082019050611b6b600083018561194a565b611b78602083018461194a565b9392505050565b600081519050919050565b600081519050919050565b600081905092915050565b600082825260208201905092915050565b6000611bbc82611c45565b9150611bc783611c45565b9250827fffffffffffffffffffffffffffffffffffffffffffffffffffffffffffffffff03821115611bfc57611bfb611c82565b5b828201905092915050565b6000611c1282611c25565b9050919050565b60008115159050919050565b600073ffffffffffffffffffffffffffffffffffffffff82169050919050565b6000819050919050565b60005b83811015611c6d578082015181840152602081019050611c52565b83811115611c7c576000848401525b50505050565b7f4e487b7100000000000000000000000000000000000000000000000000000000600052601160045260246000fd5b600080fd5b6000601f19601f8301169050919050565b7f4f776e61626c653a206e6577206f776e657220697320746865207a65726f206160008201527f6464726573730000000000000000000000000000000000000000000000000000602082015250565b7f4f2062616c616e6365206f6620636f6e74726163740000000000000000000000600082015250565b7f416464726573733a20696e73756666696369656e742062616c616e636520666f60008201527f722063616c6c0000000000000000000000000000000000000000000000000000602082015250565b7f4f776e61626c653a2063616c6c6572206973206e6f7420746865206f776e6572600082015250565b7f416464726573733a2063616c6c20746f206e6f6e2d636f6e7472616374000000600082015250565b7f5361666545524332303a204552433230206f7065726174696f6e20646964206e60008201527f6f74207375636365656400000000000000000000000000000000000000000000602082015250565b611e3881611c07565b8114611e4357600080fd5b50565b611e4f81611c19565b8114611e5a57600080fd5b50565b611e6681611c45565b8114611e7157600080fd5b5056fea2646970667358221220dd7e90cc41cfccee1fad5177bb169e9b0699b94c36eed2ec205e4d405181c94464736f6c63430008070033",
  "devdoc": {
    "kind": "dev",
    "methods": {
      "owner()": {
        "details": "Returns the address of the current owner."
      },
      "renounceOwnership()": {
        "details": "Leaves the contract without owner. It will not be possible to call `onlyOwner` functions anymore. Can only be called by the current owner. NOTE: Renouncing ownership will leave the contract without an owner, thereby removing any functionality that is only available to the owner."
      },
      "transferOwnership(address)": {
        "details": "Transfers ownership of the contract to a new account (`newOwner`). Can only be called by the current owner."
      }
    },
    "version": 1
  },
  "userdoc": {
    "kind": "user",
    "methods": {},
    "version": 1
  },
  "storageLayout": {
    "storage": [
      {
        "astId": 7,
        "contract": "contracts/Strategy/ArbitrumStrategies/GMXStrategy.sol:GMXStrategy",
        "label": "_owner",
        "offset": 0,
        "slot": "0",
        "type": "t_address"
      },
      {
        "astId": 5896,
        "contract": "contracts/Strategy/ArbitrumStrategies/GMXStrategy.sol:GMXStrategy",
        "label": "rewardRouterV2",
        "offset": 0,
        "slot": "1",
        "type": "t_contract(IRewardRouterV2)7389"
      },
      {
        "astId": 5902,
        "contract": "contracts/Strategy/ArbitrumStrategies/GMXStrategy.sol:GMXStrategy",
        "label": "administrator",
        "offset": 0,
        "slot": "2",
        "type": "t_address"
      },
      {
        "astId": 5904,
        "contract": "contracts/Strategy/ArbitrumStrategies/GMXStrategy.sol:GMXStrategy",
        "label": "yieldDistributor",
        "offset": 0,
        "slot": "3",
        "type": "t_address"
      },
      {
        "astId": 5911,
        "contract": "contracts/Strategy/ArbitrumStrategies/GMXStrategy.sol:GMXStrategy",
        "label": "claimable",
        "offset": 0,
        "slot": "4",
        "type": "t_uint256"
      },
      {
        "astId": 5913,
        "contract": "contracts/Strategy/ArbitrumStrategies/GMXStrategy.sol:GMXStrategy",
        "label": "compounded",
        "offset": 0,
        "slot": "5",
        "type": "t_uint256"
      },
      {
        "astId": 5916,
        "contract": "contracts/Strategy/ArbitrumStrategies/GMXStrategy.sol:GMXStrategy",
        "label": "adminRemoved",
        "offset": 0,
        "slot": "6",
        "type": "t_bool"
      }
    ],
    "types": {
      "t_address": {
        "encoding": "inplace",
        "label": "address",
        "numberOfBytes": "20"
      },
      "t_bool": {
        "encoding": "inplace",
        "label": "bool",
        "numberOfBytes": "1"
      },
      "t_contract(IRewardRouterV2)7389": {
        "encoding": "inplace",
        "label": "contract IRewardRouterV2",
        "numberOfBytes": "20"
      },
      "t_uint256": {
        "encoding": "inplace",
        "label": "uint256",
        "numberOfBytes": "32"
      }
    }
  }
}